:020000040000FA
:100000000000022871309A0001309B00803000000F
:100010000000FC200000000083120000A9001B0863
:10002000A8007330AA000130AB008312000028083A
:10003000AC002908AD00FF30A807031CA9032C0859
:100040002D0403199A2804302A07AC00AD01AD0D28
:100050002B08AD072C089A002D089B00803000006B
:100060000000FC200000000083120000AF001B080D
:10007000AE002A089A002B089B0080300000000088
:10008000FC200000000083120000B100AD001B083E
:10009000B000AC0002302A07AC00AD01AD0D2B085A
:1000A000AD072C089A002D089B008030000000004E
:1000B000FC200000000083120000AD00B3001B080C
:1000C000AC00B200831200002E08B2002F08B3006B
:1000D000FF30AE07031CAF03320833040319932823
:1000E00030089A0031089B00803000000000E920B1
:1000F0000000000083120000B2002C0883120313DA
:1001000084008313831200002D1883173208831292
:100110000313800083120000B00A0319B10AAC0A6D
:100120000319AD0A6228063083120000AA070318DB
:10013000AB0A1528000000009E2808003D217F2101
:100140008E2182217C2194215F21A600260803199B
:10015000A428C83030215F21A60026080319A4284E
:100160008B2182218821831205115F21A600260898
:10017000031DC728053054215F21A6002608031D52
:10018000C72891218221792185218B21C6286821C8
:10019000A6002608031DB328831205150530542137
:1001A000A6016821A70027080319DD2801303021A6
:1001B000A60AC8302602031CD128C830260203181C
:1001C000B328831205159121792185218B21E728F8
:1001D0000800003A0319F028803A0319F728003480
:1001E0001A08840083131B188317000808001B08D3
:1001F0008A001A0882000800003A03190429803A8C
:1002000003190E299B0100341A08840083131B185C
:10021000831700089B00840A000808000000000003
:10022000F72099009A0F9B039B0A00000000F7201B
:10023000980019089B00180808009D001B089C00E6
:100240009E019F011D081F02031D28291C081E0274
:1002500003182F2900009E0A03199F0A222908006B
:10026000A000A1012008210203183C290D309B00A9
:1002700000301D21A10A3229080083128511861140
:1002800086100511831685118611861085140614B3
:100290000800A400A50124082502031853290A30E8
:1002A0005421A50A4B290800A200A3012208230219
:1002B00003185E2964303021A30A562908009D01E5
:1002C000831285189D0A1D080030031901300800AB
:1002D0009D01831206189D0A1D0800300319013084
:1002E00008000134003497340134343400340134CC
:1002F00000347830492108000230492108000330D9
:100300004921080003305421080083128610080098
:100310008312861408008312861108008312861542
:100320000800831285110800831285150800003427
:02400E00F33F7E
:00000001FF
